:1000000017EF00F0EA6A050EE96EEF500EE00F0EF2
:10001000016E006A002EFED7012EFBD78F0E006EF8
:10002000002EFED70000EF2EF2D734EF00F0F86A72
:10003000D09EC150C00B0F09C16E070EB46EC050E8
:10004000C00B0609C06EC09EC280C150C00B0E0915
:10005000C16E000E016EC250C30B0110C26E000EC5
:10006000936E010E056ECED7C282C2B2FED7C4CF48
:0A00700004F004C081FFF5D703007F
:020000040030CA
:0E00000024CE3E1E0085A1000FC00FA00F40B1
:00000001FF
;PIC18F4550
;CRC=74F5  CREATED="06-feb.-24 09:29"
