:1000000002EF00F0F86AD09EB886E10EAF6E040EE3
:10001000B06EA60EAC6E900EAB6EC150C00B0F0949
:10002000C16E070EB46E056A000E936E9EAAFED7CF
:10003000AECF05F00550780A07E0020A08E0030A8F
:1000400009E00E0A0AE00CD093908A8011D09392B6
:100050008A820ED093948A840BD093968A8608D095
:1000600093908A9093928A9293948A9493968A9684
:04007000DDD70300D5
:020000040030CA
:0E00000024CE3E1E0085A1000FC00FA00F40B1
:00000001FF
;PIC18F4550
;CRC=ED87  CREATED="09-abr.-24 21:16"
