:1000000038EF00F041542B52415544340000415424
:100010002B4E414D45564C41440041542B50494EC6
:10002000313233340000EA6A060EE96EEF500EE01A
:100030000F0E016E006A002EFED7012EFBD78F0E29
:10004000006E002EFED70000EF2EF2D7120009003E
:10005000F5520DE0F6CF05F0F7CF06F0F5509EA86B
:10006000FED7AD6E05C0F6FF06C0F7FFF0D7120051
:10007000F86AD09EB886E10EAF6E040EB06EA60E82
:10008000AC6E900EAB6EC150C00B0F09C16E070E67
:10009000B46EFE0E936E8180410E9EA8FED7AD6EAB
:1000A000540E9EA8FED7AD6E040E056EFA0E066EB7
:1000B000BADF052EFBD7040EF66E000EF76EC7DF13
:1000C000040E056EFA0E066EAEDF052EFBD70E0E81
:1000D000F66E000EF76EBBDF040E056EFA0E066EAE
:1000E000A2DF052EFBD71A0EF66E000EF76EAFDFFD
:1000F000040E056EFA0E066E96DF052EFBD7FFD7AF
:020100000300FA
:020000040030CA
:0E00000024CE3E1E0085A1000FC00FA00F40B1
:00000001FF
;PIC18F4550
;CRC=6C25  CREATED="13-mar.-24 22:02"
